{
  "_format": "hh-sol-artifact-1",
  "contractName": "Counter",
  "sourceName": "contracts/Counter.sol",
  "abi": [
    {
      "inputs": [],
      "name": "count",
      "outputs": [
        {
          "internalType": "int256",
          "name": "",
          "type": "int256"
        }
      ],
      "stateMutability": "view",
      "type": "function"
    },
    {
      "inputs": [],
      "name": "decrease",
      "outputs": [],
      "stateMutability": "nonpayable",
      "type": "function"
    },
    {
      "inputs": [],
      "name": "increase",
      "outputs": [],
      "stateMutability": "nonpayable",
      "type": "function"
    },
    {
      "inputs": [],
      "name": "reset",
      "outputs": [],
      "stateMutability": "nonpayable",
      "type": "function"
    }
  ],
  "bytecode": "0x60806040526000805534801561001457600080fd5b506101f9806100246000396000f3fe608060405234801561001057600080fd5b506004361061004c5760003560e01c806306661abd14610051578063d732d9551461006f578063e8927fbc14610079578063fea723e614610083575b600080fd5b61005961008d565b60405161006691906100dd565b60405180910390f35b610077610093565b005b6100816100ac565b005b61008b6100c5565b005b60005481565b6000808154809291906100a590610102565b9190505550565b6000808154809291906100be9061014b565b9190505550565b60008081905550565b6100d7816100f8565b82525050565b60006020820190506100f260008301846100ce565b92915050565b6000819050919050565b600061010d826100f8565b91507f80000000000000000000000000000000000000000000000000000000000000008214156101405761013f610194565b5b600182039050919050565b6000610156826100f8565b91507f7fffffffffffffffffffffffffffffffffffffffffffffffffffffffffffffff82141561018957610188610194565b5b600182019050919050565b7f4e487b7100000000000000000000000000000000000000000000000000000000600052601160045260246000fdfea264697066735822122098760152e6ff272349138ceba099b2e1dc11d5fdbc53ef6f92570b253789148464736f6c63430008040033",
  "linkReferences": {},
  "deployedLinkReferences": {}
}